{
  "contractName": "Participation",
  "abi": [
    {
      "constant": true,
      "inputs": [
        {
          "name": "",
          "type": "uint256"
        }
      ],
      "name": "participants",
      "outputs": [
        {
          "name": "",
          "type": "address"
        }
      ],
      "payable": false,
      "stateMutability": "view",
      "type": "function"
    },
    {
      "constant": false,
      "inputs": [
        {
          "name": "partyId",
          "type": "uint256"
        }
      ],
      "name": "participate",
      "outputs": [
        {
          "name": "",
          "type": "uint256"
        }
      ],
      "payable": false,
      "stateMutability": "nonpayable",
      "type": "function"
    },
    {
      "constant": true,
      "inputs": [],
      "name": "getParticipants",
      "outputs": [
        {
          "name": "",
          "type": "address[16]"
        }
      ],
      "payable": false,
      "stateMutability": "view",
      "type": "function"
    }
  ],
  "bytecode": "0x608060405234801561001057600080fd5b506102f4806100206000396000f3fe608060405260043610610057576000357c0100000000000000000000000000000000000000000000000000000000900463ffffffff16806335c1d3491461005c5780635aa68ac0146100d7578063845c93061461012a575b600080fd5b34801561006857600080fd5b506100956004803603602081101561007f57600080fd5b8101908080359060200190929190505050610179565b604051808273ffffffffffffffffffffffffffffffffffffffff1673ffffffffffffffffffffffffffffffffffffffff16815260200191505060405180910390f35b3480156100e357600080fd5b506100ec6101ae565b6040518082601060200280838360005b838110156101175780820151818401526020810190506100fc565b5050505090500191505060405180910390f35b34801561013657600080fd5b506101636004803603602081101561014d57600080fd5b810190808035906020019092919050505061022f565b6040518082815260200191505060405180910390f35b60008160108110151561018857fe5b016000915054906101000a900473ffffffffffffffffffffffffffffffffffffffff1681565b6101b66102a4565b6000601080602002604051908101604052809291908260108015610225576020028201915b8160009054906101000a900473ffffffffffffffffffffffffffffffffffffffff1673ffffffffffffffffffffffffffffffffffffffff16815260200190600101908083116101db575b5050505050905090565b60008082101580156102425750600f8211155b151561024d57600080fd5b3360008360108110151561025d57fe5b0160006101000a81548173ffffffffffffffffffffffffffffffffffffffff021916908373ffffffffffffffffffffffffffffffffffffffff160217905550819050919050565b6102006040519081016040528060109060208202803883398082019150509050509056fea165627a7a72305820379137ea5e7bd70d014d65c3c257c3ec2c95956e15c71c4af527a6de18a563000029",
  "source": "pragma solidity ^0.5.0;\r\n\r\ncontract Participation {\r\n\taddress[16] public participants;\r\n\tfunction participate(uint partyId) public returns (uint){\r\n\t\trequire(partyId >= 0 && partyId <= 15);\r\n\t\tparticipants[partyId] = msg.sender;\r\n\t\treturn partyId;\r\n\t}\r\n\tfunction getParticipants() public view returns (address[16] memory){\r\n\t\treturn participants;\r\n\t}\r\n}",
  "sourcePath": "C:/Users/rlaeh/Desktop/Truffle_DApp/contracts/Participation.sol",
  "compiler": {
    "name": "solc",
    "version": "0.5.0+commit.1d4f565a.Emscripten.clang"
  },
  "schemaVersion": "3.0.6",
  "updatedAt": "2019-04-11T11:24:59.221Z",
  "devdoc": {
    "methods": {}
  },
  "userdoc": {
    "methods": {}
  }
}